{
  "contractName": "Faucet",
  "abi": [
    {
      "inputs": [],
      "payable": false,
      "stateMutability": "nonpayable",
      "type": "constructor"
    },
    {
      "payable": true,
      "stateMutability": "payable",
      "type": "fallback"
    },
    {
      "constant": false,
      "inputs": [
        {
          "name": "withdraw_amount",
          "type": "uint256"
        }
      ],
      "name": "withdraw",
      "outputs": [],
      "payable": false,
      "stateMutability": "nonpayable",
      "type": "function"
    },
    {
      "constant": false,
      "inputs": [],
      "name": "destroy",
      "outputs": [],
      "payable": false,
      "stateMutability": "nonpayable",
      "type": "function"
    }
  ],
  "bytecode": "0x608060405234801561001057600080fd5b50336000806101000a81548173ffffffffffffffffffffffffffffffffffffffff021916908373ffffffffffffffffffffffffffffffffffffffff160217905550610159806100606000396000f30060806040526004361061004c576000357c0100000000000000000000000000000000000000000000000000000000900463ffffffff1680632e1a7d4d1461004e57806383197ef01461007b575b005b34801561005a57600080fd5b5061007960048036038101908080359060200190929190505050610092565b005b34801561008757600080fd5b506100906100f3565b005b670de0b6b3a764000081111515156100a957600080fd5b3373ffffffffffffffffffffffffffffffffffffffff166108fc829081150290604051600060405180830381858888f193505050501580156100ef573d6000803e3d6000fd5b5050565b6000809054906101000a900473ffffffffffffffffffffffffffffffffffffffff1673ffffffffffffffffffffffffffffffffffffffff16ff00a165627a7a72305820aa8ec1b459e06fd68d65c00697c82d473ba8d1573db7df3dcfc36dfcc73006b00029",
  "source": "pragma solidity ^0.4.24;\r\n\r\ncontract Faucet {\r\n\r\n    address owner;\r\n\r\n\r\n    modifier onlyOwner {\r\n        require(msg.sender == owner);\r\n        _;\r\n    }\r\n\r\n    constructor() public{\r\n        owner = msg.sender;\r\n    }\r\n    \r\n    function withdraw(uint withdraw_amount) public {\r\n        require(withdraw_amount <= 1 ether);\r\n\r\n        msg.sender.transfer(withdraw_amount);\r\n    }\r\n    \r\n    function destroy() public {\r\n       \r\n        selfdestruct(owner);    \r\n    }\r\n\r\n    function() external payable{}\r\n}",
  "sourcePath": "K:\\code\\Faucet\\contracts\\Faucet.sol",
  "compiler": {
    "name": "solc",
    "version": "0.4.24+commit.e67f0147.Emscripten.clang"
  },
  "schemaVersion": "2.0.1",
  "updatedAt": "2018-11-26T18:24:43.899Z"
}